:020000040800F2
:100000000080012021220008952100089721000886
:10001000992100089B2100089D2100080000000094
:100020000000000000000000000000009F21000808
:10003000A121000800000000A3210008A52100085C
:100040007122000871220008712200087122000844
:100050007122000871220008712200087122000834
:100060007122000871220008712200087122000824
:100070007122000871220008712200087122000814
:100080007122000871220008712200087122000804
:10009000B5210008712200087122000871220008B1
:1000A00071220008712200087122000871220008E4
:1000B00071220008712200087122000871220008D4
:1000C00071220008712200087122000871220008C4
:1000D0007122000871220008CD2100087122000859
:1000E00071220008712200087122000871220008A4
:1000F0007122000871220008712200087122000894
:100100007122000871220008712200087122000883
:100110007122000871220008712200087122000873
:100120007122000871220008712200087122000863
:100130007122000871220008712200087122000853
:100140007122000871220008712200087122000843
:100150007122000871220008712200087122000833
:100160007122000871220008712200087122000823
:1001700071220008712200087122000800000000AE
:08018000712200087122000841
:1001880010B5054C237833B9044B13B10448AFF3C9
:1001980000800123237010BD18000020000000001B
:1001A800CC22000808B5034B1BB103490348AFF341
:1001B800008008BD000000001C000020CC220008C0
:1001C80053B94AB9002908BF00281CBF4FF0FF31B6
:1001D8004FF0FF3000F07AB9ADF1080C6DE904CEAC
:1001E80000F006F8DDF804E0DDE9022304B070470A
:1001F8002DE9F0478C460D460446089E002B51D148
:100208008A4217466DD9B2FA82FEBEF1000F0BD0B2
:10021800CEF1200C01FA0EF520FA0CFC02FA0EF7CA
:100228004CEA050C00FA0EF44FEA174A250CBCFB01
:10023800FAF81FFA87F90AFB18CC45EA0C4508FBBF
:1002480009F3AB420AD9ED1908F1FF3280F0238196
:10025800AB4240F22081A8F102083D44ED1AA4B255
:10026800B5FBFAF00AFB105544EA054400FB09F90E
:10027800A14509D9E41900F1FF3380F00A81A145AD
:1002880040F2078102383C44A4EB090440EA0840E4
:100298000021002E61D024FA0EF40023346073602C
:1002A800BDE8F0878B4207D9002E54D0002186E89C
:1002B80021000846BDE8F087B3FA83F1002940F031
:1002C8008E80AB4202D3824200F2FA80841A65EB38
:1002D80003050120AC46002E3FD086E81010BDE88B
:1002E800F08712B90127B7FBF2F7B7FA87FEBEF11C
:1002F800000F34D1EB1B3A0C1FFA87FC0121B3FB2A
:10030800F2F8250C02FB183345EA03450CFB08F309
:10031800AB4207D9ED1908F1FF3002D2AB4200F227
:10032800D1808046ED1AA3B2B5FBF2F002FB10555E
:1003380043EA05440CFB00FCA44507D9E41900F185
:10034800FF3302D2A44500F2B8801846A4EB0C048F
:1003580040EA08409DE731463046BDE8F087CEF1D7
:10036800200405FA0EF307FA0EF720FA04F83A0CFF
:1003780025FA04F448EA0308B4FBF2F14FEA1845F9
:1003880002FB11441FFA87FC45EA044501FB0CF304
:10039800AB4200FA0EF409D9ED1901F1FF3080F0F3
:1003A8008A80AB4240F2878002393D44EB1A1FFA3B
:1003B80088F5B3FBF2F002FB103345EA034500FB76
:1003C8000CF3AB4207D9ED1900F1FF386FD2AB42FD
:1003D8006DD902383D44EB1A40EA01418FE7C1F17B
:1003E800200722FA07F88B4005FA01F448EA0303CC
:1003F80020FA07FE4FEA134CFD404EEA040EB5FB07
:10040800FCF94FEA1E440CFB19551FFA83F844EA1D
:10041800054509FB08F4AC4202FA01F200FA01FAB8
:1004280008D9ED1809F1FF3043D2AC4241D9A9F1FE
:1004380002091D442D1B1FFA8EFEB5FBFCF00CFBB8
:1004480010554EEA054400FB08F8A04507D9E41802
:1004580000F1FF3529D2A04527D902381C4440EACB
:100468000940A4EB0804A0FB02894C45C6464D464A
:1004780015D312D056B1BAEB0E0364EB050404FA97
:1004880007F7CB401F43CC40376074600021BDE8BC
:10049800F0871846F8E69046E0E6C245EAD2B8EB9F
:1004A800020E69EB03050138E4E72846D7E7404622
:1004B80091E78146BEE7014678E702383C4445E7C4
:1004C800084608E7A8F102083D442BE7704700BF3B
:1004D80038B50F4B0546186808B9012038BD0D4AD4
:1004E8004FF47A73B3FBF0F31068B0FBF3F000F04D
:1004F80095FB04460028F0D10F2DEED80246294678
:100508004FF0FF3000F048FB034B20461D6038BD1C
:10051800000000201400002004000020094A13688D
:1005280043F4807310B50320136000F023FB002010
:10053800FFF7CEFF044618B901F0A6FD204610BD0E
:100548000124FBE700200240034A044913680968B4
:100558000B441360704700BF3400002000000020E7
:10056800014B1868704700BF3400002038B50446B6
:10057800FFF7F6FF631C1CBF054B1B68054618BF39
:10058800E418FFF7EDFF401B8442FAD838BD00BFDE
:100598000000002038B5044600286ED090F82030BE
:1005A8000BB901F089FD2268136823F00203136078
:1005B800FFF7D6FF054623685A68910751D41A6891
:1005C80042F001021A60FFF7CBFF054623685A681C
:1005D800D20754D5227E012A1A680CBF42F0800245
:1005E80022F080021A60627E012A1A680CBF42F06B
:1005F800400222F040021A60A27E012A1A680CBF4B
:1006080042F0200222F020021A60E27E012A1A68D3
:100618000CBF22F0100242F010021A60227F012A59
:100628001A680CBF42F0080222F008021A60627FC2
:10063800012A1A680CBF42F0040222F004021A6070
:10064800E168A2680A4321690A4361690A4361684B
:1006580001390A43DA6100200123606284F82030FE
:1006680038BDFFF77DFF401B0A28A4D9636A43F40D
:1006780000336362052384F82030012038BDFFF77A
:100688006FFF401B0A28A1D9F0E790F82030013B02
:10069800012B70B55FD803684869D3F8002242F08F
:1006A8000102C3F80022012400F01F02D3F81C52F3
:1006B80004FA02F2D4432540C3F81C52CD6985BB25
:1006C800D3F80C52CE682540C3F80C528D8803EB42
:1006D800C00045EA0645C0F840528E680D8845EAD4
:1006E8000645C0F84452886968BBD3F80402204024
:1006F800C3F80402086950BBD3F814022040C3F8B9
:100708001402096A012902BFD3F81C120A43C3F86C
:100718001C22D3F8002222F00102C3F80022002094
:1007280070BD012DDFD1D3F80C520E681543C3F804
:100738000C528D8803EBC00045EA0645C0F84052CC
:100748008E688D89CBE7D3F804021043D0E7D3F83D
:1007580014021043D3E7436A43F480234362012021
:1007680070BD38B590F82030012B04461FD10268BF
:10077800022380F82030136823F001031360FFF789
:10078800EFFE05462368586810F0010001D1606249
:1007980038BDFFF7E5FE401B0A28F3D9636A43F426
:1007A80000336362052384F82030012038BD436A92
:1007B80043F400234362F8E7F0B590F82050066848
:1007C800013D012DB46840D814F0E05F39D0C4F37E
:1007D8000164032C4FF0010505D1436A43F400037B
:1007E80043620120F0BDA5401D608868CF6804F110
:1007F800180308BB086847EA40501B012401F05061
:1008080033190869097DC3F88401012902BFD3F8A7
:10081800841141F48071C3F8841134445168C4F8D8
:100828008C111268C4F88821D3F8802142F00102A3
:10083800C3F880210020F0BD4D68384340EAC50068
:10084800DBE7436A43F40013CAE7436A43F48023AF
:10085800C6E7F0B590F82040013C012C6BD806683B
:1008680041B9F468A40707D1436A43F4001343620B
:100878000120F0BD3469F5E70C013519D5F8B071E0
:1008880007F004079760002F4BD1D5F8B0717F0DA2
:100898001760D5F8B071C7F34007D760D5F8B471C1
:1008A80007F00F071761D5F8B471D5F8B45126448D
:1008B800C7F307272D0C97615561D6F8B8211A7030
:1008C80002682244D2F8B821120A5A7002682244F7
:1008D800D2F8B821120C9A7002682244D2F8B821D2
:1008E800120EDA7002682244D2F8BC211A7102682A
:1008F8002244D2F8BC21120A5A7102682244D2F862
:10090800BC21120C9A7102681444D4F8BC21120E4E
:10091800DA71036851B9DA6842F02002DA6000201F
:10092800F0BDD5F8B071FF085760B2E71A6942F018
:1009380020021A61F3E7436A43F4802397E790F8AB
:100948002030013B012B05D80268536919435161D6
:1009580000207047436A43F48023436201207047B4
:1009680070477047704770477047704770477047C7
:1009780070477047704770472DE9F84F03685E6904
:10098800D3F804909F68D3F80CB0D3F810A0D3F82C
:10099800188016F00104054622D017F0010407D08C
:1009A8000122B9079A6040F1A380FFF7D9FF00241C
:1009B800FB0509D52B684FF48072B8059A6040F1A1
:1009C800A5802846FFF7CDFFFB0309D52B684FF418
:1009D8008032B8039A6040F1A7802846FFF7C2FF2B
:1009E800330707D51BF0100F1FBF2B68102244F4E4
:1009F8000074DA60770708D51BF0080F05D02B685C
:100A08000822DA602846FFF7B1FFB00706D52B6841
:100A1800DB68990702D0284601F00CFA720607D560
:100A28001AF0100F1FBF2B68102244F480641A615B
:100A3800B30608D51AF0080F05D02B6808221A61EA
:100A48002846FFF795FFF70606D52B681B69980718
:100A580002D02846FFF78BFFB10308D519F0100F15
:100A680005D02B6810225A602846FFF782FFF20350
:100A780008D519F0080F05D02B6808225A602846B7
:100A8800FFF778FF33042AD519F0040F2A6824D019
:100A9800F70504D518F0010F18BF44F00104B0059C
:100AA80004D518F0020F18BF44F00204710504D5EC
:100AB80018F0040F18BF44F0040433050DD518F0DE
:100AC80070030AD0302B4CD03CD8102B43D0202BAD
:100AD80044D0936923F070039361042353602CB1CD
:100AE8006B6A1C436C622846FFF745FFBDE8F88F28
:100AF8007A0705D417F0080405D1FFF734FF57E744
:100B08004FF4006454E74FF4805451E7790502D557
:100B180044F4005458E73A0502D544F4804453E7B6
:100B28002846FFF721FF4FE7790302D544F4004434
:100B380056E73A0302D544F4803451E72846FFF7D4
:100B480014FF4DE7502B0FD0602B10D0402BC0D195
:100B580044F04004BDE744F00804BAE744F0100448
:100B6800B7E744F02004B4E744F08004B1E744F464
:100B78008074AEE7074AD36823F4E0631B041B0CB8
:100B880043F0BF63000243F4003300F4E060034322
:100B9800D360704700ED00E0174B30B5DC68C4F354
:100BA8000224C4F10703251D042B28BF0423062DA6
:100BB8004FF0010505FA03F303F1FF338CBF033C43
:100BC80000241940A14005FA04F4013C2240002801
:100BD80042EA01024FEA0212ADBF00F1604000F0A4
:100BE8000F00064B00F56140B5BFD2B2D2B21A541D
:100BF80080F8002330BD00BF00ED00E014ED00E0F8
:100C0800002808DB4209012300F01F0003FA00F066
:100C1800014B43F82200704700E100E00138B0F1D1
:100C2800807F0AD2064B074A5860F02182F82310C9
:100C38000020072298601A6070470120704700BFA3
:100C480010E000E000ED00E0044B1A6804280CBF37
:100C580042F0040222F004021A60704710E000E03B
:100C6800704708B5FFF7FCFF08BD90F82520022A59
:100C780010B503D00422C263012010BD0268046CC1
:100C88001168836B21F00E011160116821F00101D8
:100C98001160426C012102F01C0201FA02F262604A
:100CA800002480F8251080F8244013B19847204686
:100CB80010BD184610BD00002DE9F04F85B00B6837
:100CC800DFF8A881674C01930023019ADA4002D12A
:100CD80005B0BDE8F08F0126019A9E4012EA060E83
:100CE80000F0B1804A6822F01007022F16D14FEAAF
:100CF800D30900EB890903F0070AD9F820504FEA15
:100D08008A0A4FF00F0C0CFA0AFC25EA0C0C0D6944
:100D180005FA0AF545EA0C05C9F820504FEA430CD4
:100D28000325D0F800B005FA0CF5ED4302F0030AEC
:100D38000BEA050B0AFA0CF9013F49EA0B09012FE6
:100D4800C0F8009011D8876805EA0709CF6807FA44
:100D58000CF747EA09078760476827EA0609C2F3DC
:100D680000179F4047EA09074760BAF1030F07D108
:100D7800C76A27EA0606C2F3C0079F403E43C66219
:100D8800C66835408E6806FA0CF63543C560D5004E
:100D980059D5D8F8605045F00105C8F86050D8F822
:100DA800605023F0030606F1804605F0010506F5BC
:100DB8008036039503F0030C039DB5684FEA8C0C4D
:100DC8000F2707FA0CF7B0F1904F25EA07073CD038
:100DD800254DA8423BD005F58065A84239D005F5D8
:100DE8008065A84237D005F58065A84235D005F55D
:100DF8008065A84233D005F58065A84214BF072551
:100E0800062505FA0CF53D43B56025686FEA0E0620
:100E1800D70354BF35404EEA05052560656897033A
:100E280054BF35404EEA05056560A568D70254BF32
:100E380035404EEA0505A560E568920254BF354085
:100E48004EEA0505E56001333FE70025D9E70125AE
:100E5800D7E70225D5E70325D3E70425D1E70525FC
:100E6800CFE700BF00040140000400480010024022
:100E78000AB181617047816270470000024B1868AF
:100E880000F4C060704700BF00700040174B1A683C
:100E9800B0F5007F02F4C0621CD1B2F5007F15D016
:100EA8001A6822F4C06242F400721A60104A11688B
:100EB80032224A430F49B2FBF1F21946013258690E
:100EC800400500D522B94B695B050DD40020704759
:100ED800013AF4E7B2F5806F1FBF1A6822F4C062C6
:100EE80042F480621A60F1E7032070470070004006
:100EF8001400002040420F0037B51E4DAB6DDA00DC
:100F0800044618D5FFF7BAFFB0F5007F23D1802C2F
:100F180029D9A02C8CBF02200120174A136823F07E
:100F2800070303431360136803F00703181A18BF75
:100F3800012003B030BDAB6D43F08053AB65AB6DA2
:100F480003F080530193019BFFF798FFAB6D23F0EB
:100F58008053AB65D8E7802C07D808D0A4F170037C
:100F680058425841D9E70020D7E70320D5E70220A7
:100F7800D3E700BF0010024000200240F8B5324C11
:100F8800236843F001032360FFF7EAFA0546236864
:100F98009B0743D523682D4A23F0F00343F06003F1
:100FA80023600023A3602A4B1A602A4B1868FFF7B6
:100FB8008FFA0546002845D1FFF7D2FA41F2883763
:100FC8000646A36813F00C0F30D12268224B134059
:100FD8002360FFF7C5FA0646236813F028532BD180
:100FE800E360E26842F48052E2602361226942F4DD
:100FF800805222616361626942F4805262612268B0
:1010080022F480222260A3614FF0FF332362D4F8D8
:10101800943043F40003C4F8943005E0FFF7A0FAD5
:10102800401B0228B3D903252846F8BDFFF798FAD4
:10103800801BB842C5D9F6E7FFF792FA801B022851
:10104800CAD9F0E70125EFE70010024000093D008A
:101058001400002004000020FFF4FEEA224B9A68E6
:10106800D96812F00C0205D00C2A15D101F0030141
:10107800012918D119681D48090755BFD3F89410DC
:101088001968C1F30321C1F3031150F821004AB3D1
:101098000C2A09D000207047042A22D0082A1448B4
:1010A80018BF002070470020DA6802F00302022A05
:1010B80015D00F49032A08BF0846DA68D968DB68E3
:1010C800C3F34163C1F30621C2F30212013348435B
:1010D80001325B00B0FBF2F0B0FBF3F0704705485B
:1010E800EBE70448704700BF0010024010230008D7
:1010F80000127A000024F4002DE9F743054608B9E8
:10110800012047E0A64C0368A668E768DB0606F0FE
:101118000C0607F0030773D51EB10C2E52D1012F10
:1011280050D12368980702D5AB69002BE8D0236813
:10113800286A190756BFD4F8943023681B0903F0AE
:10114800F003834229D2FFF7D7FE0028D8D12368BD
:1011580043F00803236023682A6A23F0F00313434B
:1011680023606368EA6923F47F4343EA02236360E8
:10117800FFF774FFA3688B4AC3F30313D35C03F030
:101188001F03D840884B1860884B1868FFF7A0F9F0
:10119800002835D003B0BDE8F083236843F0080386
:1011A8002360236823F0F003034323606368EA693C
:1011B80023F47F4343EA02236360FFF79DFE002880
:1011C800D6D09DE7AB69002B36D0236843F00103E6
:1011D8002360FFF7C5F9804623689A0724D523685A
:1011E80043F00803236023682A6A23F0F0031343BB
:1011F80023606368EA6923F47F4343EA0223636058
:101208002B68D80729D42B68990767D42B68180747
:1012180000F19C802B68590700F1CA80A86A002851
:1012280040F033810020B5E7FFF79AF9A0EB0800FA
:101238000228D1D90320ADE7236823F001032360F6
:10124800FFF78EF9804623689B07D9D5FFF788F901
:10125800A0EB08000228F6D9ECE7082E03D00C2EE4
:1012680008D1032F06D123689A03CCD56B68002BCD
:10127800C9D145E76B68B3F5803F10D1236843F4C3
:1012880080332360FFF76CF9804623689B03BAD448
:10129800FFF766F9A0EB08006428F6D9CAE7B3F5AA
:1012A800A02F04D1236843F480232360E6E7226853
:1012B80022F480322260226822F480222260002BED
:1012C800E0D1FFF74DF98046236898039BD5FFF7D7
:1012D80047F9A0EB08006428F6D9ABE7042E03D041
:1012E8000C2E10D1022F0ED12368590503D5EB68B7
:1012F800002B3FF405AF63682A6923F0F85343EAEB
:101308000263636082E7EB687BB1236843F4807310
:101318002360FFF725F9074623685A05EBD4FFF742
:101328001FF9C01B0228F7D984E7236823F48073C8
:101338002360FFF715F9074623685B057FF566AF5D
:10134800FFF70EF9C01B0228F6D973E76B699BB14A
:10135800D4F8943043F00103C4F89430FFF700F94F
:101368000746D4F894309A073FF554AFFFF7F8F8DA
:10137800C01B0228F5D95DE7D4F8943023F00103A7
:10138800C4F89430FFF7ECF80746D4F894309B077C
:101398007FF540AFFFF7E4F8C01B0228F5D949E70D
:1013A80000100240F522000814000020040000206C
:1013B800A36DD80029D4A36D43F08053A365A36D12
:1013C80003F080530193019B4FF00108794F3B686C
:1013D800D9051DD5AB68012B2BD1D4F8903043F03B
:1013E8000103C4F89030FFF7BBF841F2883907468B
:1013F800D4F890309B0742D5B8F1000F3FF40EAFF8
:10140800A36D23F08053A36508E74FF00008DDE7DC
:101418003B6843F480733B60FFF7A2F881463B6862
:10142800DA05D7D4FFF79CF8A0EB09000228F6D913
:1014380000E7052B06D1D4F8903043F00403C4F834
:101448009030CAE7D4F8902022F00102C4F8902026
:10145800D4F8902022F00402C4F89020002BC2D1C6
:10146800FFF77EF841F288390746D4F8903098079C
:10147800C2D5FFF775F8C01B4845F6D9DAE6FFF77D
:101488006FF8C01B4845B3D9D4E60C2E5CD023684E
:10149800022823F0807323603BD1FFF761F80646EA
:1014A800236899012FD4E268434B1340EA6A134337
:1014B8006A6B43EA02232A6B013A43EA0213AA6BD6
:1014C800120943EA4243EA6B5208013A43EA42539B
:1014D8002A6C5208013A43EA4263E360236843F006
:1014E80080732360E36843F08073E360FFF738F8A4
:1014F800054623689A013FF595AEFFF731F8401B82
:101508000228F6D996E6FFF72BF8801B0228C7D9E0
:1015180090E6236813F0205F02BFE36823F003031B
:10152800E360E36823F0887323F48033E360FFF714
:1015380017F8054623689B017FF574AEFFF710F88E
:10154800401B0228F6D975E601283FF423AEE3686C
:10155800EA6A03F0030191427FF4D2AD296B03F0EC
:1015680070020139B2EB011F7FF4CAAD696B03F455
:10157800FE42B2EB012F7FF4C3ADAA6B073A03F426
:10158800003118BF012291427FF4BAADEA6B5208CC
:1015980003F4C001013AB1EB425F7FF4B1AD2A6CAC
:1015A8005208013A03F0C063B3EB426F14BF012045
:1015B8000020EFE5007000408C809DF92DE9F04196
:1015C8000E46044610B90120BDE8F081414A13686F
:1015D80003F007038B422AD32368D90732D4216842
:1015E8008A075CD43B4A136803F007039E425ED324
:1015F80011F0040F384D65D10B0706D5AB68226989
:1016080023F4605343EAC203AB60FFF727FDAB68DE
:10161800324AC3F30313BDE8F041D35C03F01F0360
:10162800D8402F4B18602F4B1868FEF751BF13682E
:1016380023F007030B431360136803F00703994271
:10164800C1D1C9E76268244D032A2B681BD113F066
:10165800007FB8D0AB6823F003031343AB60FEF7F9
:101668007FFF41F288380746AB68626803F00C03D5
:10167800B3EB820FB3D0FEF773FFC01B4045F3D91D
:101688000320BDE8F081022A02D113F4003FE0E70D
:1016980012B913F0020FDCE713F4806FD9E70E4A92
:1016A800A068936823F0F003034393609AE71368F4
:1016B80023F0070333431360136803F007039E42C4
:1016C80081D195E7AB68E26823F4E0631343AB602C
:1016D80092E700BF0020024000100240F5220008F7
:1016E8001400002004000020054B064A9B68C3F341
:1016F8000223D35C044A106803F01F03D8407047E4
:10170800001002400523000814000020054B064A7B
:101718009B68C3F3C223D35C044A106803F01F0319
:10172800D84070470010024005230008140000202C
:1017380003681A6822F490721A609A6822F001020B
:101748009A602023836700230366704770477047B9
:101758000368DA69196870B5160704469D680AD1E6
:10176800960664D58E0662D5036E002B00F0828043
:10177800BDE87040184715F0010002D111F4907FC0
:1017880055D0D50707D5CE0505D501251D62E56FCE
:1017980045F00105E567950706D528B102251D62C4
:1017A800E56F45F00405E567560706D528B1042519
:1017B8001D62E56F45F00205E567150707D58E063A
:1017C80000D420B108201862E36F0343E367E36F96
:1017D800002B4FD0950605D5880603D5236E0BB18F
:1017E800204698472268E56F92685106204602D441
:1017F80015F0080517D0FFF79BFF23689A68520673
:101808000DD59A68E06E22F040029A6038B11A4B02
:101818008363FFF72AFA68B3E06E836BA8E7204674
:10182800FFF795FF70BDFFF792FFE56770BDD60221
:1018380009D5680207D54FF4801220461A62BDE820
:10184800704000F0F5BA160605D50D0603D5636E8F
:1018580083B120468CE750060CD54A060AD51A688B
:1018680022F040021A602023636700236366204643
:10187800FFF76CFF70BD00BF8518000808B5806AC7
:101888000023A0F85A30A0F85230FFF760FF08BDD7
:101898000268C169F8B5044683680069156803439E
:1018A80060690343BA480B432840034313605368F5
:1018B800E06823F4405303435360B64BA0699A424F
:1018C8001CBF236A1843936823F43063034393606F
:1018D800B14B9A4219D103F55843B04AD3F888302E
:1018E80003F00303B1F5004FD35C40F03881082BB7
:1018F80000F28F80DFE813F01A01CA00F9008D00AA
:1019080014018D008D008D003600A54B9A4207D139
:1019180003F5E633A34AD3F8883003F00C03E1E774
:10192800A14B9A4223D103F5E433D3F8883003F06E
:101938003003102B00F0F1800BD8002B00F0F3805F
:10194800B1F5004F4FF001024FF0000300F0F880AE
:10195800A8E0202B00F0C680302BF1D1B1F5004F64
:1019680040F0B8806068430803F58033C3E08F4BCC
:101978009A421ED103F5E233D3F8883003F0C0034E
:10198800402B00F0BB800AD87BB9824B9A4240F0CA
:10199800CA80FFF7A9FE0023B0BB02463AE0802BBD
:1019A80000F09D80C02B00F0B0807A4B9A42C7D1DE
:1019B8002FE07F4B9A4211D103F5E033D3F88830FA
:1019C80003F44073B3F5807F00F09880DCD9B3F559
:1019D800007F00F08480B3F5407FE4E76D4B9A42C6
:1019E800AED103F5C833D3F8883003F44063B3F5B8
:1019F800806F00F08380C7D9B3F5006F6FD0B3F55F
:101A0800406FD0E76B480223626802EB42018142D3
:101A180005D901220023236663661046F8BDB0EBA2
:101A2800023FF6D8082B2ED8DFE803F0052D1C2D31
:101A3800242D2D2D2700FFF757FE62684FF4807183
:101A480056080027E1FB0067002330463946FEF7B9
:101A5800B7FB0022584BA0F540719942D9D82368AA
:101A6800D860D7E75548550800230021401941F1AF
:101A78000001ECE7FFF7F2FADFE750080021002346
:101A880010F50000F3E701220020E3E7FFF73EFE30
:101A98004EE0FFF729FE626800EB5203B3FBF2F356
:101AA8009BB20022A3F110004FF6EF718842B0D824
:101AB8002168CB60AEE7FFF729FEECE760684308D2
:101AC80003F5740303F51053B3FBF0F3E8E7FFF7EE
:101AD800C5FAE0E76068430803F50043F4E72D4BD7
:101AE8009A428FD0B1F5004FE8D16068430803F1FE
:101AF800F47303F59043B3FBF0F31FE0254B9A42D0
:101B08000BD1FFF7ABFA042346E7224B9A427FF446
:101B180025AF4FF40040082376E7B1F5004FD6D142
:101B2800FFF79CFA04E0B1F5004FB2D1FFF7DCFDF6
:101B380061684A0802EB4003B3FBF1F39BB2002251
:101B4800A3F110004FF6EF7188423FF662AF23F021
:101B58000F012068C3F342030B43C3605AE7082B05
:101B68003FF657AF01A252F823F000BF9B1A0008B6
:101B7800BF1A0008C51A00081B1A0008D71A00085F
:101B88001B1A00081B1A00081B1A0008DD1A000897
:101B9800F369FFEF0080004000380140E4220008AC
:101BA80000440040E822000800480040004C004083
:101BB800005000400024F400FFFC0F00000024F453
:101BC800436ADA0710B506D50168846A4A6822F4C0
:101BD800003222434A609C0706D50168C46A4A68F5
:101BE80022F4803222434A60590706D50168046B03
:101BF8004A6822F4802222434A601A0706D50168FF
:101C0800446B4A6822F4004222434A60DC0606D547
:101C18000168846B8A6822F4805222438A6099069C
:101C280006D50168C46B8A6822F4005222438A6090
:101C38005A060FD50168046C4A6822F480122243C0
:101C4800B4F5801F4A6005D14A68446C22F4C0028A
:101C580022434A601B0606D50268816C536823F448
:101C680000230B43536010BD2DE9F041069D044647
:101C78000F46164698462168CA6937EA02030CBF20
:101C880001220022B24202D00020BDE8F0816B1C84
:101C9800F2D0FEF765FCA0EB0800854201D3002DC9
:101CA800E9D123681A6822F4D0721A609A6822F07F
:101CB80001029A6020236367A367002384F87030C9
:101CC8000320BDE8F0812DE9F7439846436F202BA8
:101CD80004460E4691464BD1002947D0002A45D0EC
:101CE80090F87030012B43D0012380F87030002524
:101CF8002123C5674367FEF733FCA368A4F8509017
:101D0800B3F5805F0746A4F8529003D123690BB955
:101D180035461E46B4F85220CDF8008092B23B46B4
:101D28004AB940212046FFF79FFF50B92023636737
:101D380084F8700006E0002280212046FFF794FF17
:101D480018B1032003B0BDE8F08322685EB935F806
:101D5800023BC3F308031385B4F85230013B9BB22E
:101D6800A4F85230D6E716F8013BF4E70120E9E77A
:101D78000220E7E773B504460026C667FEF7F0FBC6
:101D880023681B681A07054615D423681B685B0778
:101D98000AD56FF07E43009300222B464FF4800152
:101DA8002046FFF761FF90B920230020636784F87D
:101DB8007000A3670CE06FF07E4300933246034641
:101DC8004FF400112046FFF74FFF0028DDD0032015
:101DD80002B070BD10B5044640B3436F1BB980F81C
:101DE800703000F099F9226824236367136823F0A0
:101DF800010313602046FFF74BFD012816D0636AE4
:101E080013B12046FFF7DCFE23685A6822F490429B
:101E18005A609A6822F02A029A601A6842F001020F
:101E280020461A60BDE81040FFF7A4BF012010BD8E
:101E38007047000010B5074B074A0021FEF709FD5F
:101E480038B90A23082203490448BDE81040FFF7BF
:101E58003ABF10BDFD040020380100209C08002076
:101E680030B597B04422002105A800F023FA1422C7
:101E78000021684600F01EFAFFF780F80223059358
:101E88004FF4807308930124102305A809930F9435
:101E9800FFF732F900B1FEE70F2302900390049098
:101EA800042168468DE81800FFF788FB00B1FEE7BB
:101EB8004FF40070FEF7EAFF054600B1FEE7042084
:101EC800FEF7C2FE2A4621464FF0FF30FEF764FEB9
:101ED80017B030BD80B58EB0FEF720FBFFF7C0FF0E
:101EE8005C485D4A5D4E5E4D00244FF4E13380E866
:101EF8001C000C234361C46004618461C4610462F2
:101F08004462FFF767FFF36C43F00103F364F36C7B
:101F180003F001030293029BF36C43F00203F364A2
:101F2800F36C03F002032246039320214FF0904004
:101F3800039B0127FEF79CFF202304A94FF0904044
:101F48000493059706940794FEF7B6FE4FF4407382
:101F580004930323079304A90923424808934FF0E5
:101F68000208CDF814800694FEF7A6FE2822214622
:101F7800284600F09FF9B36D43F00073B365B36D65
:101F880003F000730193019B374B042685E8480052
:101F980028464FF480332B61FEF7FCFA00B1FEE7C8
:101FA80009900A90049005900690079008900E23D7
:101FB80004A928460B970C970D93FEF766FB00B112
:101FC800FEE72846FEF7CDFB00B1FEE7414628466E
:101FD800FEF7B5FC044600B1FEE7244B4FF48478C5
:101FE800D86098601875024601464FF00809142019
:101FF800C3F800805F60C3F81090FEF7CDFD142091
:10200800FEF7FEFD1A4BC3F800805F60DC609C6041
:102018001C75C3F81090174BC3F800805F60DC6034
:102028001E619C601C75144B144E1C605C60144C43
:102038000F49234632462846FEF7BEFB2346114A7F
:102048000C492846FEF7B8FB4FF47A70FEF78EFA73
:10205800EEE700BF9C08002000440040001002404A
:1020680020040020000400480064004024050020EB
:10207800D402002074090020FD0400200C00002078
:1020880004040020080000200A4B1A6E42F00102E6
:102098001A661A6E82B002F001020092009A9A6DD6
:1020A80042F080529A659B6D03F080530193019B27
:1020B80002B070470010024000B50268144B9A4203
:1020C80089B022D103F5D63303A99A6D114842F09D
:1020D80000729A659A6D02F000720192019ADA6CA8
:1020E80042F00202DA64DB6C03F002030293029B03
:1020F8004FF44073039302230493002305930323AF
:10210800069309230793FEF7D7FD09B05DF804FB92
:10211800006400400004004810B5044688B014224A
:10212800002103A800F0C6F82268174B9A4228D16C
:1021380003F5E63303A99A6D42F400329A659A6D65
:1021480002F400320192019ADA6C42F00102DA6478
:10215800DB6C03F001030293029B0C23039302231D
:102168000493032306934FF0904007230793FEF749
:10217800A3FD002226201146FEF70EFD2620FEF7BD
:102188003FFD08B010BD00BF004400407047FEE7A7
:10219800FEE7FEE7FEE770477047704708B5FEF7B1
:1021A800D3F9BDE80840FEF75CBD000010B5044C4B
:1021B8002046FEF7E1FB2046BDE81040FFF73ABE97
:1021C800200400200148FFF7C3BA00BF9C08002084
:1021D8000F49D1F8883043F47003C1F888300D4BAB
:1021E8001A68002042F001021A6098601A6822F00A
:1021F800A85222F410221A604FF48052DA601A684A
:1022080022F480221A6098614FF000638B60704757
:1022180000ED00E000100240DFF834D0002103E0B8
:102228000C4B5B58435004310B480C4B42189A42F4
:10223800F6D30B4A02E0002342F8043B094B9A42CA
:10224800F9D3FFF7C5FF00F011F8FFF743FEFEE7EB
:102258000080012050230008000000201800002002
:1022680018000020D0090020FEE7000070B50D4ED0
:102278000D4CA41BA4100025A54209D10B4E0C4CF3
:1022880000F020F8A41BA4100025A54205D170BDBC
:1022980056F8253098470135EEE756F82530984727
:1022A8000135F2E7482300084823000848230008BE
:1022B8004C23000802440346934200D1704703F8B8
:1022C800011BF9E7F8B500BFF8BC08BC9E4670478B
:0C22D800F8B500BFF8BC08BC9E4670477B
:1022E4000104020800101010041010100210101045
:1022F40008000000000000000001020304060708B3
:10230400090000000001020304000000A08601008F
:10231400400D0300801A060000350C0040420F00F7
:1023240080841E0000093D0000127A000024F4009D
:0C23340000366E010048E801006CDC027D
:08234000B8DEFF7F0100000080
:04234800AD010008DB
:04234C0089010008FB
:10235000010000001000000066CC66CC55AA55AA0A
:082360000710000000093D0018
:0400000508002221AC
:00000001FF
